:100000008BC0C0C0F8C033C171C1ACC1EAC12BC242
:1000100084C2B9C2F1C22CC36AC3A5C3E3C324C45A
:100020007FC4B4C4ECC427C565C5A0C5DEC51FC662
:100030007AC6AFC6E7C622C760C79BC7D9C71AC86A
:100040007FC88CC89AC8A9C8B9C8C8C8D8C8E9C8E0
:1000500016C923C931C940C950C95FC96FC980C910
:10006000AFC9BCC9CAC9D9C9E9C9F8C908CA19CA36
:1000700048CA55CA63CA72CA82CA91CAA1CAB2CA58
:10008000EACAF0CAF7CAFFCA07CB0ECB16CB1ECB03
:1000900046CB4CCB53CB5BCB63CB6ACB72CB7ACB0F
:1000A000A2CBA8CBAFCBB7CBBFCBC6CBCECBD6CB1F
:1000B000FECB04CC0BCC13CC1BCC22CC2ACC32CC28
:1000C000CF93DF93CDB7DEB761E080E004D060E08E
:1000D00080E015D8FFCFCF93DF9300D0CDB7DEB748
:1000E00089836A838981883008F0F9C18981882FE2
:1000F00090E0092E000CAA0BBB0B40E050E027E07B
:1001000030E0841B950B2817390708F4EFC780509F
:1001100090408F939F9308958A81882331F18A813B
:10012000813069F48BE390E021E02170E82FF92F12
:1001300031813E7F232BE82FF92F2183DAC78BE310
:1001400090E0E82FF92F21812E7FE82FF92F2183CE
:100150008BE390E021E02170E82FF92F30813E7F82
:10016000232BE82FF92F2083C4C78BE390E020E0F6
:100170002170E82FF92F31813E7F232BE82FF92FB3
:100180002183B7C78A81882341F18A81813071F444
:100190008BE390E021E02170220FE82FF92F3181CD
:1001A0003D7F232BE82FF92F2183A3C78BE390E01A
:1001B000E82FF92F21812D7FE82FF92F21838BE361
:1001C00090E021E02170220FE82FF92F30813D7F50
:1001D000232BE82FF92F20838CC78BE390E020E0BE
:1001E0002170220FE82FF92F31813D7F232BE82F3B
:1001F000F92F21837EC78A81882351F18A8181303A
:1002000079F48BE390E021E02170220F220FE82F98
:10021000F92F31813B7F232BE82FF92F218369C7E9
:100220008BE390E0E82FF92F21812B7FE82FF92F26
:1002300021838BE390E021E02170220F220FE82F31
:10024000F92F30813B7F232BE82FF92F208351C7D3
:100250008BE390E020E02170220F220FE82FF92F8E
:1002600031813B7F232BE82FF92F218342C78A81DD
:10027000882361F18A81813081F48BE390E021E071
:100280002170220F220F220FE82FF92F3181377FA3
:10029000232BE82FF92F21832CC78BE390E0E82F45
:1002A000F92F2181277FE82FF92F21838BE390E01D
:1002B00021E02170220F220F220FE82FF92F308129
:1002C000377F232BE82FF92F208313C78BE390E090
:1002D00020E02170220F220F220FE82FF92F318109
:1002E000377F232BE82FF92F218303C78A818823A7
:1002F00051F18A81813079F48BE390E021E0217023
:100300002295207FE82FF92F31813F7E232BE82F84
:10031000F92F2183EEC68BE390E0E82FF92F21819E
:100320002F7EE82FF92F21838BE390E021E02170CD
:100330002295207FE82FF92F30813F7E232BE82F55
:10034000F92F2083D6C68BE390E020E02170229520
:10035000207FE82FF92F31813F7E232BE82FF92FC3
:100360002183C7C68A81882361F18A81813081F423
:100370008BE390E021E021702295220F207EE82F70
:10038000F92F31813F7D232BE82FF92F2183B1C62F
:100390008BE390E0E82FF92F21812F7DE82FF92FB3
:1003A00021838BE390E021E021702295220F207EB3
:1003B000E82FF92F30813F7D232BE82FF92F208361
:1003C00098C68BE390E020E021702295220F207EDA
:1003D000E82FF92F31813F7D232BE82FF92F21833F
:1003E00088C68A81882371F18A81813089F48BE300
:1003F00090E021E021702295220F220F207CE82F2F
:10040000F92F31813F7B232BE82FF92F218371C6F0
:100410008BE390E0E82FF92F21812F7BE82FF92F34
:1004200021838BE390E021E021702295220F220F9F
:10043000207CE82FF92F30813F7B232BE82FF92FE9
:10044000208357C68BE390E020E021702295220F95
:10045000220F207CE82FF92F31813F7B232BE82FBF
:10046000F92F218346C68A81882351F18A81813000
:1004700079F48BE390E021E0279522272795E82F58
:10048000F92F31813F77232BE82FF92F218331C6B4
:100490008BE390E0E82FF92F21812F77E82FF92FB8
:1004A00021838BE390E021E0279522272795E82FF1
:1004B000F92F30813F77232BE82FF92F208319C69E
:1004C0008BE390E020E0279522272795E82FF92F4E
:1004D00031813F77232BE82FF92F21830AC68981A9
:1004E000883008F4FFC18981823108F0FBC189811D
:1004F000882F90E0092E000CAA0BBB0B4AE050E0BD
:1005000027E030E0841B950B2817390708F4E8C171
:10051000885F9F4F8F939F9308958A81882331F13D
:100520008A81813069F488E390E021E02170E82F2E
:10053000F92F31813E7F232BE82FF92F2183D1C161
:1005400088E390E0E82FF92F21812E7FE82FF92F03
:10055000218388E390E021E02170E82FF92F30819A
:100560003E7F232BE82FF92F2083BBC188E390E047
:1005700020E02170E82FF92F31813E7F232BE82FD7
:10058000F92F2183AEC18A81882341F18A8181308C
:1005900071F488E390E021E02170220FE82FF92F19
:1005A00031813D7F232BE82FF92F21839AC188E3E6
:1005B00090E0E82FF92F21812D7FE82FF92F21835B
:1005C00088E390E021E02170220FE82FF92F30819D
:1005D0003D7F232BE82FF92F208383C188E390E010
:1005E00020E02170220FE82FF92F31813D7F232B4E
:1005F000E82FF92F218375C18A81882351F18A81DF
:10060000813079F488E390E021E02170220F220FFD
:10061000E82FF92F31813B7F232BE82FF92F2183FE
:1006200060C188E390E0E82FF92F21812B7FE82F2C
:10063000F92F218388E390E021E02170220F220F1F
:10064000E82FF92F30813B7F232BE82FF92F2083D0
:1006500048C188E390E020E02170220F220FE82FAC
:10066000F92F31813B7F232BE82FF92F218339C1CB
:100670008A81882361F18A81813081F488E390E066
:1006800021E02170220F220F220FE82FF92F318154
:10069000377F232BE82FF92F218323C188E390E0B4
:1006A000E82FF92F2181277FE82FF92F218388E375
:1006B00090E021E02170220F220F220FE82FF92F66
:1006C0003081377F232BE82FF92F20830AC188E35D
:1006D00090E020E02170220F220F220FE82FF92F47
:1006E0003181377F232BE82FF92F2183FAC08A81AC
:1006F000882351F18A81813079F488E390E021E008
:1007000021702295207FE82FF92F31813F7E232B06
:10071000E82FF92F2183E5C088E390E0E82FF92F37
:1007200021812F7EE82FF92F218388E390E021E0BB
:1007300021702295207FE82FF92F30813F7E232BD7
:10074000E82FF92F2083CDC088E390E020E02170CE
:100750002295207FE82FF92F31813F7E232BE82F30
:10076000F92F2183BEC08A81882361F18A8181307B
:1007700081F488E390E021E021702295220F207E11
:10078000E82FF92F31813F7D232BE82FF92F21838B
:10079000A8C088E390E0E82FF92F21812F7DE82F72
:1007A000F92F218388E390E021E021702295220F28
:1007B000207EE82FF92F30813F7D232BE82FF92F62
:1007C00020838FC088E390E020E021702295220FE3
:1007D000207EE82FF92F31813F7D232BE82FF92F41
:1007E00021837FC08A81882371F18A81813089F4D5
:1007F00088E390E021E021702295220F220F207CD7
:10080000E82FF92F31813F7B232BE82FF92F21830C
:1008100068C088E390E0E82FF92F21812F7BE82F33
:10082000F92F218388E390E021E021702295220FA7
:10083000220F207CE82FF92F30813F7B232BE82FDC
:10084000F92F20834EC088E390E020E021702295AC
:10085000220F220F207CE82FF92F31813F7B232BA1
:10086000E82FF92F21833DC08A81882351F18A81A5
:10087000813079F488E390E021E0279522272795BD
:10088000E82FF92F31813F77232BE82FF92F218390
:1008900028C088E390E0E82FF92F21812F77E82FF7
:1008A000F92F218388E390E021E0279522272795DF
:1008B000E82FF92F30813F77232BE82FF92F208362
:1008C00010C088E390E020E0279522272795E82FA5
:1008D000F92F31813F77232BE82FF92F218301C096
:1008E000000007C48981823108F4FFC18981883101
:1008F00008F0FBC18981882F90E0092E000CAA0B1B
:10090000BB0B40E150E027E030E0841B950B28173B
:10091000390708F4E8C1805F9F4F8F939F93089534
:100920008A81882331F18A81813069F485E390E0FE
:1009300021E02170E82FF92F31813E7F232BE82F12
:10094000F92F2183D1C185E390E0E82FF92F218190
:100950002E7FE82FF92F218385E390E021E021709D
:10096000E82FF92F30813E7F232BE82FF92F2083AA
:10097000BBC185E390E020E02170E82FF92F3181A1
:100980003E7F232BE82FF92F2183AEC18A81882354
:1009900041F18A81813071F485E390E021E021709A
:1009A000220FE82FF92F31813D7F232BE82FF92FDC
:1009B00021839AC185E390E0E82FF92F21812D7FD3
:1009C000E82FF92F218385E390E021E02170220FA9
:1009D000E82FF92F30813D7F232BE82FF92F20833B
:1009E00083C185E390E020E02170220FE82FF92FEA
:1009F00031813D7F232BE82FF92F218375C18A8117
:100A0000882351F18A81813079F485E390E021E0F7
:100A10002170220F220FE82FF92F31813B7F232BEA
:100A2000E82FF92F218360C185E390E0E82FF92FAB
:100A300021812B7FE82FF92F218385E390E021E0AE
:100A40002170220F220FE82FF92F30813B7F232BBB
:100A5000E82FF92F208348C185E390E020E0217042
:100A6000220F220FE82FF92F31813B7F232BE82F14
:100A7000F92F218339C18A81882361F18A818130EC
:100A800081F485E390E021E02170220F220F220FF4
:100A9000E82FF92F3181377F232BE82FF92F21837E
:100AA00023C185E390E0E82FF92F2181277FE82FEC
:100AB000F92F218385E390E021E02170220F220F9E
:100AC000220FE82FF92F3081377F232BE82FF92FC2
:100AD00020830AC185E390E020E02170220F220FDD
:100AE000220FE82FF92F3181377F232BE82FF92FA1
:100AF0002183FAC08A81882351F18A81813079F477
:100B000085E390E021E021702295207FE82FF92FE6
:100B100031813F7E232BE82FF92F2183E5C085E328
:100B200090E0E82FF92F21812F7EE82FF92F2183E4
:100B300085E390E021E021702295207FE82FF92FB6
:100B400030813F7E232BE82FF92F2083CDC085E312
:100B500090E020E021702295207FE82FF92F31814D
:100B60003F7E232BE82FF92F2183BEC08A81882363
:100B700061F18A81813081F485E390E021E0217088
:100B80002295220F207EE82FF92F31813F7D232BE4
:100B9000E82FF92F2183A8C085E390E0E82FF92FF3
:100BA00021812F7DE82FF92F218385E390E021E03B
:100BB00021702295220F207EE82FF92F30813F7D72
:100BC000232BE82FF92F20838FC085E390E020E0CE
:100BD00021702295220F207EE82FF92F31813F7D51
:100BE000232BE82FF92F21837FC08A81882371F17D
:100BF0008A81813089F485E390E021E0217022959B
:100C0000220F220F207CE82FF92F31813F7B232BED
:100C1000E82FF92F218368C085E390E0E82FF92FB2
:100C200021812F7BE82FF92F218385E390E021E0BC
:100C300021702295220F220F207CE82FF92F30817E
:100C40003F7B232BE82FF92F20834EC085E390E0D4
:100C500020E021702295220F220F207CE82FF92F0F
:100C600031813F7B232BE82FF92F21833DC08A81DF
:100C7000882351F18A81813079F485E390E021E085
:100C8000279522272795E82FF92F31813F77232BAE
:100C9000E82FF92F218328C085E390E0E82FF92F72
:100CA00021812F77E82FF92F218385E390E021E040
:100CB000279522272795E82FF92F30813F77232B7F
:100CC000E82FF92F208310C085E390E020E02795DE
:100CD00022272795E82FF92F31813F77232BE82F03
:100CE000F92F218301C0000004C28981883108F4F2
:100CF00000C28981803208F0FCC18981882F90E090
:100D0000092E000CAA0BBB0B48E150E027E030E0B5
:100D1000841B950B2817390708F4EAC1885E9F4F9A
:100D20008F939F9308958A81882331F18A8181303E
:100D300069F482E390E021E02170E82FF92F3181FE
:100D40003E7F232BE82FF92F2183D3C182E390E04C
:100D5000E82FF92F21812E7FE82FF92F218382E3BD
:100D600090E021E02170E82FF92F30813E7F232B86
:100D7000E82FF92F2083BDC182E390E020E02170AD
:100D8000E82FF92F31813E7F232BE82FF92F218384
:100D9000B0C18A81882341F18A81813071F482E374
:100DA00090E021E02170220FE82FF92F31813D7F63
:100DB000232BE82FF92F21839CC182E390E0E82FB9
:100DC000F92F21812D7FE82FF92F218382E390E0F5
:100DD00021E02170220FE82FF92F30813D7F232B56
:100DE000E82FF92F208385C182E390E020E0217075
:100DF000220FE82FF92F31813D7F232BE82FF92F88
:100E0000218377C18A81882351F18A81813079F4E5
:100E100082E390E021E02170220F220FE82FF92FCA
:100E200031813B7F232BE82FF92F218362C182E39D
:100E300090E0E82FF92F21812B7FE82FF92F2183D4
:100E400082E390E021E02170220F220FE82FF92F9A
:100E500030813B7F232BE82FF92F20834AC182E387
:100E600090E020E02170220F220FE82FF92F31812E
:100E70003B7F232BE82FF92F21833BC18A818823D5
:100E800061F18A81813081F482E390E021E0217078
:100E9000220F220F220FE82FF92F3181377F232BCA
:100EA000E82FF92F218325C182E390E0E82FF92F65
:100EB0002181277FE82FF92F218382E390E021E031
:100EC0002170220F220F220FE82FF92F3081377F58
:100ED000232BE82FF92F20830CC182E390E020E040
:100EE0002170220F220F220FE82FF92F3181377F37
:100EF000232BE82FF92F2183FCC08A81882351F10D
:100F00008A81813079F482E390E021E0217022959A
:100F1000207FE82FF92F31813F7E232BE82FF92FF7
:100F20002183E7C082E390E0E82FF92F21812F7E13
:100F3000E82FF92F218382E390E021E021702295B0
:100F4000207FE82FF92F30813F7E232BE82FF92FC8
:100F50002083CFC082E390E020E021702295207FA3
:100F6000E82FF92F31813F7E232BE82FF92F2183A2
:100F7000C0C08A81882361F18A81813081F482E353
:100F800090E021E021702295220F207EE82FF92F9A
:100F900031813F7D232BE82FF92F2183AAC082E3E3
:100FA00090E0E82FF92F21812F7DE82FF92F218361
:100FB00082E390E021E021702295220F207EE82F2D
:100FC000F92F30813F7D232BE82FF92F208391C00B
:100FD00082E390E020E021702295220F207EE82F0E
:100FE000F92F31813F7D232BE82FF92F218381C0F9
:100FF0008A81882371F18A81813089F482E390E0CB
:1010000021E021702295220F220F207CE82FF92F5A
:1010100031813F7B232BE82FF92F21836AC082E3A4
:1010200090E0E82FF92F21812F7BE82FF92F2183E2
:1010300082E390E021E021702295220F220F207C94
:10104000E82FF92F30813F7B232BE82FF92F2083C6
:1010500050C082E390E020E021702295220F220F01
:10106000207CE82FF92F31813F7B232BE82FF92FAC
:1010700021833FC08A81882351F18A81813079F4AC
:1010800082E390E021E0279522272795E82FF92F8A
:1010900031813F77232BE82FF92F21832AC082E368
:1010A00090E0E82FF92F21812F77E82FF92F218366
:1010B00082E390E021E0279522272795E82FF92F5A
:1010C00030813F77232BE82FF92F208312C082E352
:1010D00090E020E0279522272795E82FF92F3181EE
:1010E0003F77232BE82FF92F218303C0000001C095
:1010F000000000000F900F90DF91CF910895CF93E3
:10110000DF9300D0CDB7DEB789836A8389818830C9
:1011100008F097C08981882F90E0092E000CAA0B57
:10112000BB0B40E050E027E030E0841B950B281714
:10113000390708F467C2805E9F4F8F939F9308958D
:101140008BE390E02A8121702170E82FF92F308104
:101150003E7F232BE82FF92F208357C28BE390E0AB
:101160002A8121702170220FE82FF92F30813D7FD5
:10117000232BE82FF92F208348C28BE390E02A81AC
:1011800021702170220F220FE82FF92F30813B7F31
:10119000232BE82FF92F208338C28BE390E02A819C
:1011A00021702170220F220F220FE82FF92F30819A
:1011B000377F232BE82FF92F208327C28BE390E082
:1011C0002A81217021702295207FE82FF92F30810C
:1011D0003F7E232BE82FF92F208317C28BE390E06B
:1011E0002A81217021702295220F207EE82FF92F6D
:1011F00030813F7D232BE82FF92F208306C28BE31C
:1012000090E02A81217021702295220F220F207CEC
:10121000E82FF92F30813F7B232BE82FF92F2083F4
:10122000F4C18BE390E02A8121702795222727952E
:10123000E82FF92F30813F77232BE82FF92F2083D8
:10124000E4C18981883008F49DC08981823108F029
:1012500099C08981882F90E0092E000CAA0BBB0B46
:101260004AE050E027E030E0841B950B281739074F
:1012700008F486C0885D9F4F8F939F93089588E3FD
:1012800090E02A8121702170E82FF92F30813E7F74
:10129000232BE82FF92F208374C088E390E02A8164
:1012A00021702170220FE82FF92F30813D7F232BF1
:1012B000E82FF92F208365C088E390E02A81217010
:1012C0002170220F220FE82FF92F30813B7F232B33
:1012D000E82FF92F208355C088E390E02A81217000
:1012E0002170220F220F220FE82FF92F3081377F34
:1012F000232BE82FF92F208344C088E390E02A8134
:10130000217021702295207FE82FF92F30813F7EB8
:10131000232BE82FF92F208334C088E390E02A8123
:10132000217021702295220F207EE82FF92F308125
:101330003F7D232BE82FF92F208323C088E390E003
:101340002A81217021702295220F220F207CE82F04
:10135000F92F30813F7B232BE82FF92F208311C0F9
:1013600088E390E02A812170279522272795E82F8E
:10137000F92F30813F77232BE82FF92F208301C0ED
:10138000000043C18981823108F49DC08981883180
:1013900008F099C08981882F90E0092E000CAA0BD3
:1013A000BB0B40E150E027E030E0841B950B281791
:1013B000390708F486C0805D9F4F8F939F930895EF
:1013C00085E390E02A8121702170E82FF92F308188
:1013D0003E7F232BE82FF92F208374C085E390E014
:1013E0002A8121702170220FE82FF92F30813D7F53
:1013F000232BE82FF92F208365C085E390E02A8115
:1014000021702170220F220FE82FF92F30813B7FAE
:10141000232BE82FF92F208355C085E390E02A8104
:1014200021702170220F220F220FE82FF92F308117
:10143000377F232BE82FF92F208344C085E390E0EA
:101440002A81217021702295207FE82FF92F308189
:101450003F7E232BE82FF92F208334C085E390E0D3
:101460002A81217021702295220F207EE82FF92FEA
:1014700030813F7D232BE82FF92F208323C085E384
:1014800090E02A81217021702295220F220F207C6A
:10149000E82FF92F30813F7B232BE82FF92F208372
:1014A00011C085E390E02A81217027952227279596
:1014B000E82FF92F30813F77232BE82FF92F208356
:1014C00001C00000A2C08981883108F49EC08981D2
:1014D000803208F09AC08981882F90E0092E000C94
:1014E000AA0BBB0B48E150E027E030E0841B950BD2
:1014F0002817390708F488C0885C9F4F8F939F9303
:10150000089582E390E02A8121702170E82FF92F5D
:1015100030813E7F232BE82FF92F208376C082E392
:1015200090E02A8121702170220FE82FF92F30815D
:101530003D7F232BE82FF92F208367C082E390E0C3
:101540002A8121702170220F220FE82FF92F30817C
:101550003B7F232BE82FF92F208357C082E390E0B5
:101560002A8121702170220F220F220FE82FF92FDC
:101570003081377F232BE82FF92F208346C082E369
:1015800090E02A81217021702295207FE82FF92F89
:1015900030813F7E232BE82FF92F208336C082E352
:1015A00090E02A81217021702295220F207EE82F61
:1015B000F92F30813F7D232BE82FF92F208325C081
:1015C00082E390E02A81217021702295220F220F60
:1015D000207CE82FF92F30813F7B232BE82FF92F38
:1015E000208313C082E390E02A812170279522276F
:1015F0002795E82FF92F30813F77232BE82FF92FFC
:10160000208303C0000001C0000000000F900F9075
:10161000DF91CF910895CF93DF9300D0CDB7DEB7A0
:101620008A838A81883008F05CC08A81882F90E0A4
:10163000092E000CAA0BBB0B40E050E027E030E085
:10164000841B950B2817390708F476C1805C9F4FDF
:101650008F939F9308958BE390E0E82FF92F828179
:10166000817089838BE390E0E82FF92F8281869542
:10167000817089838BE390E0E82FF92F828182FBD0
:10168000882780F989838BE390E0E82FF92F828106
:1016900083FB882780F989838BE390E0E82FF92F7B
:1016A00082818295817089838BE390E0E82FF92F06
:1016B000828185FB882780F989838BE390E0E82F7E
:1016C000F92F828186FB882780F989838BE390E05C
:1016D000E82FF92F828187FB882780F98983000012
:1016E0002BC18A81883008F460C08A81823108F079
:1016F0005CC08A81882F90E0092E000CAA0BBB0BDE
:101700004AE050E027E030E0841B950B28173907AA
:1017100008F449C0885B9F4F8F939F93089588E397
:1017200090E0E82FF92F82818170898388E390E02F
:10173000E82FF92F828186958170898388E390E074
:10174000E82FF92F828182FB882780F9898388E33B
:1017500090E0E82FF92F828183FB882780F9898325
:1017600088E390E0E82FF92F828182958170898348
:1017700088E390E0E82FF92F828185FB882780F9A4
:10178000898388E390E0E82FF92F828186FB882700
:1017900080F9898388E390E0E82FF92F828187FB25
:1017A000882780F989830000CAC08A81823108F4C1
:1017B00060C08A81883108F05CC08A81882F90E0FF
:1017C000092E000CAA0BBB0B40E150E027E030E0F3
:1017D000841B950B2817390708F449C0805B9F4F7D
:1017E0008F939F93089585E390E0E82FF92F8281EE
:1017F0008170898385E390E0E82FF92F82818695B7
:101800008170898385E390E0E82FF92F828182FB44
:10181000882780F9898385E390E0E82FF92F82817A
:1018200083FB882780F9898385E390E0E82FF92FEF
:10183000828182958170898385E390E0E82FF92F7A
:10184000828185FB882780F9898385E390E0E82FF2
:10185000F92F828186FB882780F9898385E390E0D0
:10186000E82FF92F828187FB882780F98983000080
:1018700066C08A81883108F462C08A81803208F0AB
:101880005EC08A81882F90E0092E000CAA0BBB0B4A
:1018900048E150E027E030E0841B950B281739071A
:1018A00008F44CC0885A9F4F8F939F93089582E30A
:1018B00090E0E82FF92F82818170898382E390E0A4
:1018C000E82FF92F828186958170898382E390E0E9
:1018D000E82FF92F828182FB882780F9898382E3B0
:1018E00090E0E82FF92F828183FB882780F9898394
:1018F00082E390E0E82FF92F8281829581708983BD
:1019000082E390E0E82FF92F828185FB882780F918
:10191000898382E390E0E82FF92F828186FB882774
:1019200080F9898382E390E0E82FF92F828187FB99
:10193000882780F9898302C0000001C000000000F0
:101940000F900F90DF91CF910895CF93DF9300D048
:10195000CDB7DEB789836A838981882F90E0813093
:10196000910569F1823091051CF4892B49F084C0FE
:101970008230910509F442C0039709F45EC07CC02F
:101980008A818823B1F08A81813039F48BE390E039
:101990002FEFE82FF92F21836FC08BE390E0E82F22
:1019A000F92F11828BE390E02FEFE82FF92F20839E
:1019B00063C08BE390E0E82FF92F11825DC08A812C
:1019C0008823B1F08A81813039F488E390E02FEFE9
:1019D000E82FF92F218350C088E390E0E82FF92FFA
:1019E000118288E390E02FEFE82FF92F208344C085
:1019F00088E390E0E82FF92F11823EC08A81882386
:101A0000B1F08A81813039F485E390E02FEFE82F3F
:101A1000F92F218331C085E390E0E82FF92F11825F
:101A200085E390E02FEFE82FF92F208325C085E391
:101A300090E0E82FF92F11821FC08A818823B1F02E
:101A40008A81813039F482E390E02FEFE82FF92F7B
:101A5000218311C082E390E0E82FF92F118282E305
:101A600090E02FEFE82FF92F208305C082E390E06C
:101A7000E82FF92F1182000000000F900F90DF91E6
:101A8000CF910895CF93DF9300D0CDB7DEB7898390
:101A90006A838981882F90E08130910599F08230A6
:101AA00091051CF4892B39F022C08230910589F010
:101AB0000397B1F01CC08BE390E02A81E82FF92F47
:101AC000208315C088E390E02A81E82FF92F208336
:101AD0000EC085E390E02A81E82FF92F208307C00C
:101AE00082E390E02A81E82FF92F20830000000094
:101AF0000F900F90DF91CF910895CF93DF9300D097
:101B0000CDB7DEB78A838A81882F90E08130910536
:101B100099F0823091051CF4892B39F022C0823073
:101B2000910589F00397B1F01CC08BE390E0E82F9A
:101B3000F92F8281898315C088E390E0E82FF92F7F
:101B4000828189830EC085E390E0E82FF92F82819E
:101B5000898307C082E390E0E82FF92F828189838F
:0E1B6000000000000F900F90DF91CF910895CC
:00000001FF
